:020000000C945E
:1000020038000C9400000C9400000C9400000C9436
:1000120000000C9400000C9400000C9400000C945E
:1000220000000C9400000C9400000C9400000C944E
:1000320000000C9400000C9400000C9400000C943E
:1000420000000C9400000C9400000C9400000C942E
:1000520000003F0006005B004F0066006D007D005F
:1000620007007F006F001300600254000000F89444
:10007200EE27ECBBF1E0FBBFEBBFE5BF8DE0A2E0FA
:10008200BB27ED938A95E9F780E098E0A0E6ED932F
:100092000197E9F7E8E6F0E085919591009761F024
:1000A200A591B59105901590BF01F00105900D92B3
:1000B2000197E1F7FB01F0CFEFE5EDBFE8E0EEBF1E
:1000C200C0E6D2E00C946500EFEFEABB00E010E07E
:1000D2000A30E0E01E0784F4F801A0E6B2E0EE0F79
:1000E200FF1FAE0FBF1FEC91EBBBA8EEB3E00E9467
:1000F2007F000F5F1F4FECCFE9CFFFCF109639F093
:100102008AEF90E00197F1F7A8951197C9F7089542
:00000001FF
