:0C0000000C9438000C9400000C940000DC
:10000C000C9400000C9400000C9400000C94000064
:10001C000C9400000C9400000C9400000C94000054
:10002C000C9400000C9400000C9400000C94000044
:10003C000C9400000C9400000C9400000C94000034
:10004C000C9400000C9400003F0006005B004F0075
:10005C0066006D007D0007007F006F0013006002DA
:10006C0054000000F894EE27ECBBF1E0FBBFEBBFB3
:10007C00E5BF8DE0A2E0BB27ED938A95E9F780E020
:10008C0098E0A0E6ED930197E9F7E8E6F0E08591BA
:10009C009591009761F0A591B59105901590BF01D0
:1000AC00F00105900D920197E1F7FB01F0CFEFE520
:1000BC00EDBFE8E0EEBFC0E6D2E00C949000BA933E
:1000CC00AA931A930A9300E010E00233E0E01E07B3
:1000DC00ECF4E7EFE5BBAA81BB812CD0EBEFE5BBE1
:1000EC00AA81BB81EAE0F0E035D0EDEFE5BBAA8157
:1000FC00BB81E4E6F0E02ED0EEEFE5BBAA81BB813C
:10010C00E8EEF3E027D00F5F1F4FDFCF1981088196
:10011C0024960895EFEFEABBE4BB00E010E0083E44
:10012C00E3E01E072CF4D801CADF0F5F1F4FF7CF97
:10013C00F4CFFFCFEAE0F0E00E94DA00A0E6B2E0F4
:10014C00EE0FFF1FAE0FBF1FEC91EBBBA5E0B0E0B5
:10015C000C94B4000E94D500DF01ECCF109639F05E
:10016C008AEF90E00197F1F7A8951197C9F70895D8
:10017C00F195E195F04008950024112490E1AA0F27
:10018C00BB1F001C111C0E1A1F0A18F40E0E1F1E8A
:10019C0001C0A1609A9599F7FD01D001089512D084
:1001AC00EBDF0EF4E5DF0895E894B7FF04C0A095EB
:1001BC00B09511966894F7FDDBDFDEDFFD010EF4E0
:1001CC00D7DF0895E894F7FF02C0D2DF6894B7FF39
:1001DC0006C0A095B095119600F8039400FA089506
:00000001FF
